{
  "contractName": "EtherWallet",
  "abi": [
    {
      "constant": true,
      "inputs": [],
      "name": "owner",
      "outputs": [
        {
          "name": "",
          "type": "address"
        }
      ],
      "payable": false,
      "stateMutability": "view",
      "type": "function"
    },
    {
      "inputs": [],
      "payable": false,
      "stateMutability": "nonpayable",
      "type": "constructor"
    },
    {
      "constant": false,
      "inputs": [],
      "name": "deposit",
      "outputs": [],
      "payable": true,
      "stateMutability": "payable",
      "type": "function"
    },
    {
      "constant": true,
      "inputs": [],
      "name": "balanceOf",
      "outputs": [
        {
          "name": "",
          "type": "uint256"
        }
      ],
      "payable": false,
      "stateMutability": "view",
      "type": "function"
    },
    {
      "constant": false,
      "inputs": [
        {
          "name": "_to",
          "type": "address"
        }
      ],
      "name": "withdraw",
      "outputs": [],
      "payable": false,
      "stateMutability": "nonpayable",
      "type": "function"
    }
  ],
  "bytecode": "0x608060405234801561001057600080fd5b50336000806101000a81548173ffffffffffffffffffffffffffffffffffffffff021916908373ffffffffffffffffffffffffffffffffffffffff1602179055506102c5806100606000396000f3fe60806040526004361061003f5760003560e01c806351cff8d914610044578063722713f7146100955780638da5cb5b146100c0578063d0e30db014610117575b600080fd5b34801561005057600080fd5b506100936004803603602081101561006757600080fd5b81019080803573ffffffffffffffffffffffffffffffffffffffff169060200190929190505050610121565b005b3480156100a157600080fd5b506100aa610227565b6040518082815260200191505060405180910390f35b3480156100cc57600080fd5b506100d5610246565b604051808273ffffffffffffffffffffffffffffffffffffffff1673ffffffffffffffffffffffffffffffffffffffff16815260200191505060405180910390f35b61011f61026b565b005b6000809054906101000a900473ffffffffffffffffffffffffffffffffffffffff1673ffffffffffffffffffffffffffffffffffffffff163373ffffffffffffffffffffffffffffffffffffffff16146101c6576040517f08c379a000000000000000000000000000000000000000000000000000000000815260040180806020018281038252602c81526020018061026e602c913960400191505060405180910390fd5b8073ffffffffffffffffffffffffffffffffffffffff166108fc3073ffffffffffffffffffffffffffffffffffffffff16319081150290604051600060405180830381858888f19350505050158015610223573d6000803e3d6000fd5b5050565b60003073ffffffffffffffffffffffffffffffffffffffff1631905090565b6000809054906101000a900473ffffffffffffffffffffffffffffffffffffffff1681565b56fe5365756c656d656e74206c652070726f707269c3a9746169726520647520736d61727420636f6e7472616374a165627a7a723058205cb25a2a1e5a98ffb8ed5699a9b6a18b3c45da099fbbaa7a0f34e92682d9e7b00029",
  "source": "pragma solidity ^0.5.8;\r\n\r\ncontract EtherWallet {\r\n    address public owner;\r\n    \r\n    constructor() public {\r\n        owner = msg.sender;\r\n    }\r\n    \r\n    function deposit() payable public {}\r\n    \r\n    function balanceOf() public view returns(uint) {\r\n        return address(this).balance;\r\n    }\r\n    \r\n    function withdraw(address payable _to) public {\r\n        // Seul le propriétaire du smart contract peut retirer de l'argent\r\n        require(msg.sender == owner, 'Seulement le propriétaire du smart contract');\r\n        _to.transfer(address(this).balance);\r\n    }\r\n}",
  "sourcePath": "D:/CODE CDBF/3 - EtherWallet/contracts/EtherWallet.sol",
  "compiler": {
    "name": "solc",
    "version": "0.5.8+commit.23d335f2.Emscripten.clang"
  },
  "schemaVersion": "3.0.16",
  "updatedAt": "2020-01-05T20:44:59.460Z",
  "devdoc": {
    "methods": {}
  },
  "userdoc": {
    "methods": {}
  }
}